{
  "contractName": "nftContract",
  "abi": [
    {
      "constant": true,
      "inputs": [
        {
          "name": "interfaceId",
          "type": "bytes4"
        }
      ],
      "name": "supportsInterface",
      "outputs": [
        {
          "name": "",
          "type": "bool"
        }
      ],
      "payable": false,
      "stateMutability": "view",
      "type": "function"
    },
    {
      "constant": true,
      "inputs": [],
      "name": "name",
      "outputs": [
        {
          "name": "",
          "type": "string"
        }
      ],
      "payable": false,
      "stateMutability": "view",
      "type": "function"
    },
    {
      "constant": true,
      "inputs": [
        {
          "name": "tokenId",
          "type": "uint256"
        }
      ],
      "name": "getApproved",
      "outputs": [
        {
          "name": "",
          "type": "address"
        }
      ],
      "payable": false,
      "stateMutability": "view",
      "type": "function"
    },
    {
      "constant": false,
      "inputs": [
        {
          "name": "to",
          "type": "address"
        },
        {
          "name": "tokenId",
          "type": "uint256"
        }
      ],
      "name": "approve",
      "outputs": [],
      "payable": false,
      "stateMutability": "nonpayable",
      "type": "function"
    },
    {
      "constant": true,
      "inputs": [],
      "name": "totalSupply",
      "outputs": [
        {
          "name": "",
          "type": "uint256"
        }
      ],
      "payable": false,
      "stateMutability": "view",
      "type": "function"
    },
    {
      "constant": false,
      "inputs": [
        {
          "name": "from",
          "type": "address"
        },
        {
          "name": "to",
          "type": "address"
        },
        {
          "name": "tokenId",
          "type": "uint256"
        }
      ],
      "name": "transferFrom",
      "outputs": [],
      "payable": false,
      "stateMutability": "nonpayable",
      "type": "function"
    },
    {
      "constant": true,
      "inputs": [
        {
          "name": "",
          "type": "uint256"
        }
      ],
      "name": "nfts",
      "outputs": [
        {
          "name": "clothType",
          "type": "uint256"
        },
        {
          "name": "name",
          "type": "string"
        },
        {
          "name": "cid",
          "type": "string"
        },
        {
          "name": "rarity",
          "type": "string"
        },
        {
          "name": "isOnSale",
          "type": "bool"
        },
        {
          "name": "sellPrice",
          "type": "uint256"
        },
        {
          "name": "isBiddable",
          "type": "bool"
        },
        {
          "name": "maxBid",
          "type": "uint256"
        },
        {
          "name": "maxBidder",
          "type": "address"
        },
        {
          "name": "isWearing",
          "type": "bool"
        }
      ],
      "payable": false,
      "stateMutability": "view",
      "type": "function"
    },
    {
      "constant": true,
      "inputs": [
        {
          "name": "owner",
          "type": "address"
        },
        {
          "name": "index",
          "type": "uint256"
        }
      ],
      "name": "tokenOfOwnerByIndex",
      "outputs": [
        {
          "name": "",
          "type": "uint256"
        }
      ],
      "payable": false,
      "stateMutability": "view",
      "type": "function"
    },
    {
      "constant": false,
      "inputs": [
        {
          "name": "from",
          "type": "address"
        },
        {
          "name": "to",
          "type": "address"
        },
        {
          "name": "tokenId",
          "type": "uint256"
        }
      ],
      "name": "safeTransferFrom",
      "outputs": [],
      "payable": false,
      "stateMutability": "nonpayable",
      "type": "function"
    },
    {
      "constant": true,
      "inputs": [
        {
          "name": "index",
          "type": "uint256"
        }
      ],
      "name": "tokenByIndex",
      "outputs": [
        {
          "name": "",
          "type": "uint256"
        }
      ],
      "payable": false,
      "stateMutability": "view",
      "type": "function"
    },
    {
      "constant": true,
      "inputs": [
        {
          "name": "tokenId",
          "type": "uint256"
        }
      ],
      "name": "ownerOf",
      "outputs": [
        {
          "name": "",
          "type": "address"
        }
      ],
      "payable": false,
      "stateMutability": "view",
      "type": "function"
    },
    {
      "constant": true,
      "inputs": [
        {
          "name": "owner",
          "type": "address"
        }
      ],
      "name": "balanceOf",
      "outputs": [
        {
          "name": "",
          "type": "uint256"
        }
      ],
      "payable": false,
      "stateMutability": "view",
      "type": "function"
    },
    {
      "constant": true,
      "inputs": [],
      "name": "owner",
      "outputs": [
        {
          "name": "",
          "type": "address"
        }
      ],
      "payable": false,
      "stateMutability": "view",
      "type": "function"
    },
    {
      "constant": true,
      "inputs": [],
      "name": "symbol",
      "outputs": [
        {
          "name": "",
          "type": "string"
        }
      ],
      "payable": false,
      "stateMutability": "view",
      "type": "function"
    },
    {
      "constant": false,
      "inputs": [
        {
          "name": "to",
          "type": "address"
        },
        {
          "name": "approved",
          "type": "bool"
        }
      ],
      "name": "setApprovalForAll",
      "outputs": [],
      "payable": false,
      "stateMutability": "nonpayable",
      "type": "function"
    },
    {
      "constant": true,
      "inputs": [
        {
          "name": "",
          "type": "address"
        }
      ],
      "name": "users",
      "outputs": [
        {
          "name": "head",
          "type": "uint256"
        },
        {
          "name": "middle",
          "type": "uint256"
        },
        {
          "name": "bottom",
          "type": "uint256"
        },
        {
          "name": "username",
          "type": "string"
        },
        {
          "name": "userBalance",
          "type": "uint256"
        }
      ],
      "payable": false,
      "stateMutability": "view",
      "type": "function"
    },
    {
      "constant": false,
      "inputs": [
        {
          "name": "from",
          "type": "address"
        },
        {
          "name": "to",
          "type": "address"
        },
        {
          "name": "tokenId",
          "type": "uint256"
        },
        {
          "name": "_data",
          "type": "bytes"
        }
      ],
      "name": "safeTransferFrom",
      "outputs": [],
      "payable": false,
      "stateMutability": "nonpayable",
      "type": "function"
    },
    {
      "constant": true,
      "inputs": [
        {
          "name": "tokenId",
          "type": "uint256"
        }
      ],
      "name": "tokenURI",
      "outputs": [
        {
          "name": "",
          "type": "string"
        }
      ],
      "payable": false,
      "stateMutability": "view",
      "type": "function"
    },
    {
      "constant": true,
      "inputs": [],
      "name": "maxSupply",
      "outputs": [
        {
          "name": "",
          "type": "uint256"
        }
      ],
      "payable": false,
      "stateMutability": "view",
      "type": "function"
    },
    {
      "constant": true,
      "inputs": [
        {
          "name": "owner",
          "type": "address"
        },
        {
          "name": "operator",
          "type": "address"
        }
      ],
      "name": "isApprovedForAll",
      "outputs": [
        {
          "name": "",
          "type": "bool"
        }
      ],
      "payable": false,
      "stateMutability": "view",
      "type": "function"
    },
    {
      "inputs": [],
      "payable": false,
      "stateMutability": "nonpayable",
      "type": "constructor"
    },
    {
      "anonymous": false,
      "inputs": [
        {
          "indexed": true,
          "name": "id",
          "type": "uint256"
        },
        {
          "indexed": false,
          "name": "transactionType",
          "type": "string"
        },
        {
          "indexed": false,
          "name": "fromAddress",
          "type": "address"
        },
        {
          "indexed": false,
          "name": "toAddress",
          "type": "address"
        },
        {
          "indexed": false,
          "name": "value",
          "type": "uint256"
        }
      ],
      "name": "nftTransaction",
      "type": "event"
    },
    {
      "anonymous": false,
      "inputs": [
        {
          "indexed": true,
          "name": "from",
          "type": "address"
        },
        {
          "indexed": true,
          "name": "to",
          "type": "address"
        },
        {
          "indexed": true,
          "name": "tokenId",
          "type": "uint256"
        }
      ],
      "name": "Transfer",
      "type": "event"
    },
    {
      "anonymous": false,
      "inputs": [
        {
          "indexed": true,
          "name": "owner",
          "type": "address"
        },
        {
          "indexed": true,
          "name": "approved",
          "type": "address"
        },
        {
          "indexed": true,
          "name": "tokenId",
          "type": "uint256"
        }
      ],
      "name": "Approval",
      "type": "event"
    },
    {
      "anonymous": false,
      "inputs": [
        {
          "indexed": true,
          "name": "owner",
          "type": "address"
        },
        {
          "indexed": true,
          "name": "operator",
          "type": "address"
        },
        {
          "indexed": false,
          "name": "approved",
          "type": "bool"
        }
      ],
      "name": "ApprovalForAll",
      "type": "event"
    },
    {
      "constant": false,
      "inputs": [
        {
          "name": "_username",
          "type": "string"
        }
      ],
      "name": "setUsername",
      "outputs": [],
      "payable": false,
      "stateMutability": "nonpayable",
      "type": "function"
    },
    {
      "constant": false,
      "inputs": [
        {
          "name": "_headTokenId",
          "type": "uint256"
        },
        {
          "name": "_middleTokenId",
          "type": "uint256"
        },
        {
          "name": "_bottomTokenId",
          "type": "uint256"
        }
      ],
      "name": "wearItems",
      "outputs": [],
      "payable": false,
      "stateMutability": "nonpayable",
      "type": "function"
    },
    {
      "constant": false,
      "inputs": [
        {
          "name": "_tokenId",
          "type": "uint256"
        }
      ],
      "name": "wearItem",
      "outputs": [],
      "payable": false,
      "stateMutability": "nonpayable",
      "type": "function"
    },
    {
      "constant": false,
      "inputs": [
        {
          "name": "_clothType",
          "type": "uint256"
        }
      ],
      "name": "unWearItem",
      "outputs": [],
      "payable": false,
      "stateMutability": "nonpayable",
      "type": "function"
    },
    {
      "constant": true,
      "inputs": [
        {
          "name": "_owner",
          "type": "address"
        }
      ],
      "name": "tokensOfOwner",
      "outputs": [
        {
          "name": "",
          "type": "uint256[]"
        }
      ],
      "payable": false,
      "stateMutability": "view",
      "type": "function"
    },
    {
      "constant": false,
      "inputs": [
        {
          "name": "_tokenId",
          "type": "uint256"
        },
        {
          "name": "_sellPrice",
          "type": "uint256"
        }
      ],
      "name": "putOnSale",
      "outputs": [],
      "payable": false,
      "stateMutability": "nonpayable",
      "type": "function"
    },
    {
      "constant": false,
      "inputs": [
        {
          "name": "_tokenId",
          "type": "uint256"
        }
      ],
      "name": "cancelSale",
      "outputs": [],
      "payable": false,
      "stateMutability": "nonpayable",
      "type": "function"
    },
    {
      "constant": false,
      "inputs": [
        {
          "name": "_tokenId",
          "type": "uint256"
        }
      ],
      "name": "buyFromSale",
      "outputs": [],
      "payable": true,
      "stateMutability": "payable",
      "type": "function"
    },
    {
      "constant": false,
      "inputs": [
        {
          "name": "_tokenId",
          "type": "uint256"
        }
      ],
      "name": "putOnAuction",
      "outputs": [],
      "payable": false,
      "stateMutability": "nonpayable",
      "type": "function"
    },
    {
      "constant": false,
      "inputs": [
        {
          "name": "_tokenId",
          "type": "uint256"
        }
      ],
      "name": "cancelAuction",
      "outputs": [],
      "payable": false,
      "stateMutability": "nonpayable",
      "type": "function"
    },
    {
      "constant": false,
      "inputs": [
        {
          "name": "_tokenId",
          "type": "uint256"
        }
      ],
      "name": "bid",
      "outputs": [],
      "payable": true,
      "stateMutability": "payable",
      "type": "function"
    },
    {
      "constant": false,
      "inputs": [
        {
          "name": "_tokenId",
          "type": "uint256"
        }
      ],
      "name": "acceptHighestBid",
      "outputs": [],
      "payable": false,
      "stateMutability": "nonpayable",
      "type": "function"
    },
    {
      "constant": false,
      "inputs": [
        {
          "name": "_tokenId",
          "type": "uint256"
        }
      ],
      "name": "withdrawBid",
      "outputs": [],
      "payable": false,
      "stateMutability": "nonpayable",
      "type": "function"
    },
    {
      "constant": false,
      "inputs": [
        {
          "name": "_amount",
          "type": "uint256"
        }
      ],
      "name": "withdrawMoney",
      "outputs": [],
      "payable": false,
      "stateMutability": "nonpayable",
      "type": "function"
    },
    {
      "constant": false,
      "inputs": [
        {
          "name": "_clothType",
          "type": "uint256"
        },
        {
          "name": "_name",
          "type": "string"
        },
        {
          "name": "_cid",
          "type": "string"
        },
        {
          "name": "_rarity",
          "type": "string"
        }
      ],
      "name": "mint",
      "outputs": [],
      "payable": false,
      "stateMutability": "nonpayable",
      "type": "function"
    }
  ],
  "bytecode": "0x60806040523480156200001157600080fd5b506040805190810160405280600b81526020017f6e6674436f6e74726163740000000000000000000000000000000000000000008152506040805190810160405280600481526020017f4e465443000000000000000000000000000000000000000000000000000000008152508181620000bd6301ffc9a77c010000000000000000000000000000000000000000000000000000000002620001f9640100000000026401000000009004565b620000fa6380ac58cd7c010000000000000000000000000000000000000000000000000000000002620001f9640100000000026401000000009004565b6200013763780e9d637c010000000000000000000000000000000000000000000000000000000002620001f9640100000000026401000000009004565b81600990805190602001906200014f92919062000320565b5080600a90805190602001906200016892919062000320565b50620001a6635b5e139f7c010000000000000000000000000000000000000000000000000000000002620001f9640100000000026401000000009004565b5050505033600f60006101000a81548173ffffffffffffffffffffffffffffffffffffffff021916908373ffffffffffffffffffffffffffffffffffffffff1602179055506064601081905550620003cf565b63ffffffff7c010000000000000000000000000000000000000000000000000000000002817bffffffffffffffffffffffffffffffffffffffffffffffffffffffff191614151515620002b4576040517f08c379a000000000000000000000000000000000000000000000000000000000815260040180806020018281038252601c8152602001807f4552433136353a20696e76616c696420696e746572666163652069640000000081525060200191505060405180910390fd5b6001600080837bffffffffffffffffffffffffffffffffffffffffffffffffffffffff19167bffffffffffffffffffffffffffffffffffffffffffffffffffffffff1916815260200190815260200160002060006101000a81548160ff02191690831515021790555050565b828054600181600116156101000203166002900490600052602060002090601f016020900481019282601f106200036357805160ff191683800117855562000394565b8280016001018555821562000394579182015b828111156200039357825182559160200191906001019062000376565b5b509050620003a39190620003a7565b5090565b620003cc91905b80821115620003c8576000816000905550600101620003ae565b5090565b90565b615fb080620003df6000396000f3fe6080604052600436106101b7576000357c0100000000000000000000000000000000000000000000000000000000900463ffffffff16806301ffc9a7146101bc57806306fdde031461022e578063081812fc146102be578063095ea7b3146103395780630eaaf4c81461039457806312d3d66e146103cf57806318160ddd1461041e5780631d1ef8141461044957806323b872dd14610484578063265aa621146104ff5780632c69f97c146106f45780632f745c591461072f57806336f7992b1461079e57806342842e0e146107e3578063454a2ab31461085e5780634f6ccce71461088c57806354876921146108db57806358c973d4146109165780636352211e1461095157806370a08231146109cc5780638462151c14610a315780638da5cb5b14610ad757806395d89b4114610b2e57806396b5a75514610bbe578063a22cb46514610bf9578063a87430ba14610c56578063acdd145414610d3c578063b88d4fde14610f3c578063bd94b0051461104e578063c87b56dd14611089578063d5abeb011461113d578063e985e9c514611168578063ed59313a146111f1578063edff5d7d146112b9578063fc84afb4146112f4575b600080fd5b3480156101c857600080fd5b50610214600480360360208110156101df57600080fd5b8101908080357bffffffffffffffffffffffffffffffffffffffffffffffffffffffff19169060200190929190505050611322565b604051808215151515815260200191505060405180910390f35b34801561023a57600080fd5b50610243611389565b6040518080602001828103825283818151815260200191508051906020019080838360005b83811015610283578082015181840152602081019050610268565b50505050905090810190601f1680156102b05780820380516001836020036101000a031916815260200191505b509250505060405180910390f35b3480156102ca57600080fd5b506102f7600480360360208110156102e157600080fd5b810190808035906020019092919050505061142b565b604051808273ffffffffffffffffffffffffffffffffffffffff1673ffffffffffffffffffffffffffffffffffffffff16815260200191505060405180910390f35b34801561034557600080fd5b506103926004803603604081101561035c57600080fd5b81019080803573ffffffffffffffffffffffffffffffffffffffff1690602001909291908035906020019092919050505061150b565b005b3480156103a057600080fd5b506103cd600480360360208110156103b757600080fd5b810190808035906020019092919050505061176e565b005b3480156103db57600080fd5b5061041c600480360360608110156103f257600080fd5b810190808035906020019092919080359060200190929190803590602001909291905050506119b6565b005b34801561042a57600080fd5b50610433612126565b6040518082815260200191505060405180910390f35b34801561045557600080fd5b506104826004803603602081101561046c57600080fd5b8101908080359060200190929190505050612133565b005b34801561049057600080fd5b506104fd600480360360608110156104a757600080fd5b81019080803573ffffffffffffffffffffffffffffffffffffffff169060200190929190803573ffffffffffffffffffffffffffffffffffffffff1690602001909291908035906020019092919050505061261a565b005b34801561050b57600080fd5b506105386004803603602081101561052257600080fd5b81019080803590602001909291905050506126ce565b604051808b81526020018060200180602001806020018a151515158152602001898152602001881515151581526020018781526020018673ffffffffffffffffffffffffffffffffffffffff1673ffffffffffffffffffffffffffffffffffffffff1681526020018515151515815260200184810384528d818151815260200191508051906020019080838360005b838110156105e25780820151818401526020810190506105c7565b50505050905090810190601f16801561060f5780820380516001836020036101000a031916815260200191505b5084810383528c818151815260200191508051906020019080838360005b8381101561064857808201518184015260208101905061062d565b50505050905090810190601f1680156106755780820380516001836020036101000a031916815260200191505b5084810382528b818151815260200191508051906020019080838360005b838110156106ae578082015181840152602081019050610693565b50505050905090810190601f1680156106db5780820380516001836020036101000a031916815260200191505b509d505050505050505050505050505060405180910390f35b34801561070057600080fd5b5061072d6004803603602081101561071757600080fd5b8101908080359060200190929190505050612940565b005b34801561073b57600080fd5b506107886004803603604081101561075257600080fd5b81019080803573ffffffffffffffffffffffffffffffffffffffff16906020019092919080359060200190929190505050612d60565b6040518082815260200191505060405180910390f35b3480156107aa57600080fd5b506107e1600480360360408110156107c157600080fd5b810190808035906020019092919080359060200190929190505050612e66565b005b3480156107ef57600080fd5b5061085c6004803603606081101561080657600080fd5b81019080803573ffffffffffffffffffffffffffffffffffffffff169060200190929190803573ffffffffffffffffffffffffffffffffffffffff169060200190929190803590602001909291905050506130d6565b005b61088a6004803603602081101561087457600080fd5b81019080803590602001909291905050506130f7565b005b34801561089857600080fd5b506108c5600480360360208110156108af57600080fd5b8101908080359060200190929190505050613348565b6040518082815260200191505060405180910390f35b3480156108e757600080fd5b50610914600480360360208110156108fe57600080fd5b810190808035906020019092919050505061340f565b005b34801561092257600080fd5b5061094f6004803603602081101561093957600080fd5b81019080803590602001909291905050506134e4565b005b34801561095d57600080fd5b5061098a6004803603602081101561097457600080fd5b8101908080359060200190929190505050613786565b604051808273ffffffffffffffffffffffffffffffffffffffff1673ffffffffffffffffffffffffffffffffffffffff16815260200191505060405180910390f35b3480156109d857600080fd5b50610a1b600480360360208110156109ef57600080fd5b81019080803573ffffffffffffffffffffffffffffffffffffffff169060200190929190505050613893565b6040518082815260200191505060405180910390f35b348015610a3d57600080fd5b50610a8060048036036020811015610a5457600080fd5b81019080803573ffffffffffffffffffffffffffffffffffffffff1690602001909291905050506139ad565b6040518080602001828103825283818151815260200191508051906020019060200280838360005b83811015610ac3578082015181840152602081019050610aa8565b505050509050019250505060405180910390f35b348015610ae357600080fd5b50610aec613a0e565b604051808273ffffffffffffffffffffffffffffffffffffffff1673ffffffffffffffffffffffffffffffffffffffff16815260200191505060405180910390f35b348015610b3a57600080fd5b50610b43613a34565b6040518080602001828103825283818151815260200191508051906020019080838360005b83811015610b83578082015181840152602081019050610b68565b50505050905090810190601f168015610bb05780820380516001836020036101000a031916815260200191505b509250505060405180910390f35b348015610bca57600080fd5b50610bf760048036036020811015610be157600080fd5b8101908080359060200190929190505050613ad6565b005b348015610c0557600080fd5b50610c5460048036036040811015610c1c57600080fd5b81019080803573ffffffffffffffffffffffffffffffffffffffff169060200190929190803515159060200190929190505050613d5e565b005b348015610c6257600080fd5b50610ca560048036036020811015610c7957600080fd5b81019080803573ffffffffffffffffffffffffffffffffffffffff169060200190929190505050613f03565b6040518086815260200185815260200184815260200180602001838152602001828103825284818151815260200191508051906020019080838360005b83811015610cfd578082015181840152602081019050610ce2565b50505050905090810190601f168015610d2a5780820380516001836020036101000a031916815260200191505b50965050505050505060405180910390f35b348015610d4857600080fd5b50610f3a60048036036080811015610d5f57600080fd5b810190808035906020019092919080359060200190640100000000811115610d8657600080fd5b820183602082011115610d9857600080fd5b80359060200191846001830284011164010000000083111715610dba57600080fd5b91908080601f016020809104026020016040519081016040528093929190818152602001838380828437600081840152601f19601f82011690508083019250505050505050919291929080359060200190640100000000811115610e1d57600080fd5b820183602082011115610e2f57600080fd5b80359060200191846001830284011164010000000083111715610e5157600080fd5b91908080601f016020809104026020016040519081016040528093929190818152602001838380828437600081840152601f19601f82011690508083019250505050505050919291929080359060200190640100000000811115610eb457600080fd5b820183602082011115610ec657600080fd5b80359060200191846001830284011164010000000083111715610ee857600080fd5b91908080601f016020809104026020016040519081016040528093929190818152602001838380828437600081840152601f19601f820116905080830192505050505050509192919290505050613fd1565b005b348015610f4857600080fd5b5061104c60048036036080811015610f5f57600080fd5b81019080803573ffffffffffffffffffffffffffffffffffffffff169060200190929190803573ffffffffffffffffffffffffffffffffffffffff1690602001909291908035906020019092919080359060200190640100000000811115610fc657600080fd5b820183602082011115610fd857600080fd5b80359060200191846001830284011164010000000083111715610ffa57600080fd5b91908080601f016020809104026020016040519081016040528093929190818152602001838380828437600081840152601f19601f8201169050808301925050505050505091929192905050506144b3565b005b34801561105a57600080fd5b506110876004803603602081101561107157600080fd5b810190808035906020019092919050505061456a565b005b34801561109557600080fd5b506110c2600480360360208110156110ac57600080fd5b81019080803590602001909291905050506147d0565b6040518080602001828103825283818151815260200191508051906020019080838360005b838110156111025780820151818401526020810190506110e7565b50505050905090810190601f16801561112f5780820380516001836020036101000a031916815260200191505b509250505060405180910390f35b34801561114957600080fd5b50611152614928565b6040518082815260200191505060405180910390f35b34801561117457600080fd5b506111d76004803603604081101561118b57600080fd5b81019080803573ffffffffffffffffffffffffffffffffffffffff169060200190929190803573ffffffffffffffffffffffffffffffffffffffff16906020019092919050505061492e565b604051808215151515815260200191505060405180910390f35b3480156111fd57600080fd5b506112b76004803603602081101561121457600080fd5b810190808035906020019064010000000081111561123157600080fd5b82018360208201111561124357600080fd5b8035906020019184600183028401116401000000008311171561126557600080fd5b91908080601f016020809104026020016040519081016040528093929190818152602001838380828437600081840152601f19601f8201169050808301925050505050505091929192905050506149c2565b005b3480156112c557600080fd5b506112f2600480360360208110156112dc57600080fd5b8101908080359060200190929190505050614a1c565b005b6113206004803603602081101561130a57600080fd5b8101908080359060200190929190505050614b68565b005b6000806000837bffffffffffffffffffffffffffffffffffffffffffffffffffffffff19167bffffffffffffffffffffffffffffffffffffffffffffffffffffffff1916815260200190815260200160002060009054906101000a900460ff169050919050565b606060098054600181600116156101000203166002900480601f0160208091040260200160405190810160405280929190818152602001828054600181600116156101000203166002900480156114215780601f106113f657610100808354040283529160200191611421565b820191906000526020600020905b81548152906001019060200180831161140457829003601f168201915b5050505050905090565b60006114368261507b565b15156114d0576040517f08c379a000000000000000000000000000000000000000000000000000000000815260040180806020018281038252602c8152602001807f4552433732313a20617070726f76656420717565727920666f72206e6f6e657881526020017f697374656e7420746f6b656e000000000000000000000000000000000000000081525060400191505060405180910390fd5b6002600083815260200190815260200160002060009054906101000a900473ffffffffffffffffffffffffffffffffffffffff169050919050565b600061151682613786565b90508073ffffffffffffffffffffffffffffffffffffffff168373ffffffffffffffffffffffffffffffffffffffff16141515156115e2576040517f08c379a00000000000000000000000000000000000000000000000000000000081526004018080602001828103825260218152602001807f4552433732313a20617070726f76616c20746f2063757272656e74206f776e6581526020017f720000000000000000000000000000000000000000000000000000000000000081525060400191505060405180910390fd5b8073ffffffffffffffffffffffffffffffffffffffff163373ffffffffffffffffffffffffffffffffffffffff1614806116225750611621813361492e565b5b15156116bc576040517f08c379a00000000000000000000000000000000000000000000000000000000081526004018080602001828103825260388152602001807f4552433732313a20617070726f76652063616c6c6572206973206e6f74206f7781526020017f6e6572206e6f7220617070726f76656420666f7220616c6c000000000000000081525060400191505060405180910390fd5b826002600084815260200190815260200160002060006101000a81548173ffffffffffffffffffffffffffffffffffffffff021916908373ffffffffffffffffffffffffffffffffffffffff160217905550818373ffffffffffffffffffffffffffffffffffffffff168273ffffffffffffffffffffffffffffffffffffffff167f8c5be1e5ebec7d5bd14f71427d1e84f3dd0314c0f7b2291e5b200ac8c7c3b92560405160405180910390a4505050565b6000600e6001830381548110151561178257fe5b9060005260206000209060090201600701549050600e600183038154811015156117a857fe5b906000526020600020906009020160070154600c6000600e600186038154811015156117d057fe5b906000526020600020906009020160080160009054906101000a900473ffffffffffffffffffffffffffffffffffffffff1673ffffffffffffffffffffffffffffffffffffffff1673ffffffffffffffffffffffffffffffffffffffff168152602001908152602001600020600401600082825401925050819055506000600e6001840381548110151561186057fe5b9060005260206000209060090201600701819055506000600e6001840381548110151561188957fe5b906000526020600020906009020160080160006101000a81548173ffffffffffffffffffffffffffffffffffffffff021916908373ffffffffffffffffffffffffffffffffffffffff160217905550817fe08c5ec3e4eec30f43f959991338b87e61cc24376dfe3fc0e156daee7a4f7cf83360008460405180806020018573ffffffffffffffffffffffffffffffffffffffff1673ffffffffffffffffffffffffffffffffffffffff1681526020018473ffffffffffffffffffffffffffffffffffffffff1673ffffffffffffffffffffffffffffffffffffffff1681526020018381526020018281038252600d8152602001807f4269642057697468647261776e0000000000000000000000000000000000000081525060200194505050505060405180910390a25050565b6000831480611ac657503373ffffffffffffffffffffffffffffffffffffffff163073ffffffffffffffffffffffffffffffffffffffff16636352211e856040518263ffffffff167c01000000000000000000000000000000000000000000000000000000000281526004018082815260200191505060206040518083038186803b158015611a4457600080fd5b505afa158015611a58573d6000803e3d6000fd5b505050506040513d6020811015611a6e57600080fd5b810190808051906020019092919050505073ffffffffffffffffffffffffffffffffffffffff16148015611ac557506001600e60018503815481101515611ab157fe5b906000526020600020906009020160000154145b5b1515611ad157600080fd5b6000821480611be157503373ffffffffffffffffffffffffffffffffffffffff163073ffffffffffffffffffffffffffffffffffffffff16636352211e846040518263ffffffff167c01000000000000000000000000000000000000000000000000000000000281526004018082815260200191505060206040518083038186803b158015611b5f57600080fd5b505afa158015611b73573d6000803e3d6000fd5b505050506040513d6020811015611b8957600080fd5b810190808051906020019092919050505073ffffffffffffffffffffffffffffffffffffffff16148015611be057506002600e60018403815481101515611bcc57fe5b906000526020600020906009020160000154145b5b1515611bec57600080fd5b6000811480611cfc57503373ffffffffffffffffffffffffffffffffffffffff163073ffffffffffffffffffffffffffffffffffffffff16636352211e836040518263ffffffff167c01000000000000000000000000000000000000000000000000000000000281526004018082815260200191505060206040518083038186803b158015611c7a57600080fd5b505afa158015611c8e573d6000803e3d6000fd5b505050506040513d6020811015611ca457600080fd5b810190808051906020019092919050505073ffffffffffffffffffffffffffffffffffffffff16148015611cfb57506003600e60018303815481101515611ce757fe5b906000526020600020906009020160000154145b5b1515611d0757600080fd5b600083141515611d52576001600e60018503815481101515611d2557fe5b906000526020600020906009020160080160146101000a81548160ff021916908315150217905550611e1e565b6000600c60003373ffffffffffffffffffffffffffffffffffffffff1673ffffffffffffffffffffffffffffffffffffffff16815260200190815260200160002060000154141515611e1d576000600e6001600c60003373ffffffffffffffffffffffffffffffffffffffff1673ffffffffffffffffffffffffffffffffffffffff1681526020019081526020016000206000015403815481101515611df457fe5b906000526020600020906009020160080160146101000a81548160ff0219169083151502179055505b5b600082141515611e69576001600e60018403815481101515611e3c57fe5b906000526020600020906009020160080160146101000a81548160ff021916908315150217905550611f35565b6000600c60003373ffffffffffffffffffffffffffffffffffffffff1673ffffffffffffffffffffffffffffffffffffffff16815260200190815260200160002060010154141515611f34576000600e6001600c60003373ffffffffffffffffffffffffffffffffffffffff1673ffffffffffffffffffffffffffffffffffffffff1681526020019081526020016000206001015403815481101515611f0b57fe5b906000526020600020906009020160080160146101000a81548160ff0219169083151502179055505b5b600082141515611f80576001600e60018303815481101515611f5357fe5b906000526020600020906009020160080160146101000a81548160ff02191690831515021790555061204c565b6000600c60003373ffffffffffffffffffffffffffffffffffffffff1673ffffffffffffffffffffffffffffffffffffffff1681526020019081526020016000206002015414151561204b576000600e6001600c60003373ffffffffffffffffffffffffffffffffffffffff1673ffffffffffffffffffffffffffffffffffffffff168152602001908152602001600020600201540381548110151561202257fe5b906000526020600020906009020160080160146101000a81548160ff0219169083151502179055505b5b82600c60003373ffffffffffffffffffffffffffffffffffffffff1673ffffffffffffffffffffffffffffffffffffffff1681526020019081526020016000206000018190555081600c60003373ffffffffffffffffffffffffffffffffffffffff1673ffffffffffffffffffffffffffffffffffffffff1681526020019081526020016000206001018190555080600c60003373ffffffffffffffffffffffffffffffffffffffff1673ffffffffffffffffffffffffffffffffffffffff16815260200190815260200160002060020181905550505050565b6000600780549050905090565b3373ffffffffffffffffffffffffffffffffffffffff163073ffffffffffffffffffffffffffffffffffffffff16636352211e836040518263ffffffff167c01000000000000000000000000000000000000000000000000000000000281526004018082815260200191505060206040518083038186803b1580156121b757600080fd5b505afa1580156121cb573d6000803e3d6000fd5b505050506040513d60208110156121e157600080fd5b810190808051906020019092919050505073ffffffffffffffffffffffffffffffffffffffff1614151561221457600080fd5b6001600e6001830381548110151561222857fe5b906000526020600020906009020160080160146101000a81548160ff0219169083151502179055506001600e6001830381548110151561226457fe5b9060005260206000209060090201600001541415612393576000600c60003373ffffffffffffffffffffffffffffffffffffffff1673ffffffffffffffffffffffffffffffffffffffff16815260200190815260200160002060000154141515612347576000600e6001600c60003373ffffffffffffffffffffffffffffffffffffffff1673ffffffffffffffffffffffffffffffffffffffff168152602001908152602001600020600001540381548110151561231e57fe5b906000526020600020906009020160080160146101000a81548160ff0219169083151502179055505b80600c60003373ffffffffffffffffffffffffffffffffffffffff1673ffffffffffffffffffffffffffffffffffffffff16815260200190815260200160002060000181905550612617565b6002600e600183038154811015156123a757fe5b90600052602060002090600902016000015414156124d6576000600c60003373ffffffffffffffffffffffffffffffffffffffff1673ffffffffffffffffffffffffffffffffffffffff1681526020019081526020016000206001015414151561248a576000600e6001600c60003373ffffffffffffffffffffffffffffffffffffffff1673ffffffffffffffffffffffffffffffffffffffff168152602001908152602001600020600101540381548110151561246157fe5b906000526020600020906009020160080160146101000a81548160ff0219169083151502179055505b80600c60003373ffffffffffffffffffffffffffffffffffffffff1673ffffffffffffffffffffffffffffffffffffffff16815260200190815260200160002060010181905550612616565b6003600e600183038154811015156124ea57fe5b9060005260206000209060090201600001541415612615576000600c60003373ffffffffffffffffffffffffffffffffffffffff1673ffffffffffffffffffffffffffffffffffffffff168152602001908152602001600020600201541415156125cd576000600e6001600c60003373ffffffffffffffffffffffffffffffffffffffff1673ffffffffffffffffffffffffffffffffffffffff16815260200190815260200160002060020154038154811015156125a457fe5b906000526020600020906009020160080160146101000a81548160ff0219169083151502179055505b80600c60003373ffffffffffffffffffffffffffffffffffffffff1673ffffffffffffffffffffffffffffffffffffffff168152602001908152602001600020600201819055505b5b5b50565b61262433826150ed565b15156126be576040517f08c379a00000000000000000000000000000000000000000000000000000000081526004018080602001828103825260318152602001807f4552433732313a207472616e736665722063616c6c6572206973206e6f74206f81526020017f776e6572206e6f7220617070726f76656400000000000000000000000000000081525060400191505060405180910390fd5b6126c9838383615226565b505050565b600e818154811015156126dd57fe5b9060005260206000209060090201600091509050806000015490806001018054600181600116156101000203166002900480601f01602080910402602001604051908101604052809291908181526020018280546001816001161561010002031660029004801561278f5780601f106127645761010080835404028352916020019161278f565b820191906000526020600020905b81548152906001019060200180831161277257829003601f168201915b505050505090806002018054600181600116156101000203166002900480601f01602080910402602001604051908101604052809291908181526020018280546001816001161561010002031660029004801561282d5780601f106128025761010080835404028352916020019161282d565b820191906000526020600020905b81548152906001019060200180831161281057829003601f168201915b505050505090806003018054600181600116156101000203166002900480601f0160208091040260200160405190810160405280929190818152602001828054600181600116156101000203166002900480156128cb5780601f106128a0576101008083540402835291602001916128cb565b820191906000526020600020905b8154815290600101906020018083116128ae57829003601f168201915b5050505050908060040160009054906101000a900460ff16908060050154908060060160009054906101000a900460ff16908060070154908060080160009054906101000a900473ffffffffffffffffffffffffffffffffffffffff16908060080160149054906101000a900460ff1690508a565b6000600e6001830381548110151561295457fe5b906000526020600020906009020160080160009054906101000a900473ffffffffffffffffffffffffffffffffffffffff1690506000600e6001840381548110151561299c57fe5b90600052602060002090600902016007015490503073ffffffffffffffffffffffffffffffffffffffff166342842e0e33600e600187038154811015156129df57fe5b906000526020600020906009020160080160009054906101000a900473ffffffffffffffffffffffffffffffffffffffff16866040518463ffffffff167c0100000000000000000000000000000000000000000000000000000000028152600401808473ffffffffffffffffffffffffffffffffffffffff1673ffffffffffffffffffffffffffffffffffffffff1681526020018373ffffffffffffffffffffffffffffffffffffffff1673ffffffffffffffffffffffffffffffffffffffff1681526020018281526020019350505050600060405180830381600087803b158015612aca57600080fd5b505af1158015612ade573d6000803e3d6000fd5b50505050600e60018403815481101515612af457fe5b906000526020600020906009020160070154600c60003373ffffffffffffffffffffffffffffffffffffffff1673ffffffffffffffffffffffffffffffffffffffff168152602001908152602001600020600401600082825401925050819055506000600e60018503815481101515612b6957fe5b9060005260206000209060090201600701819055506000600e60018503815481101515612b9257fe5b906000526020600020906009020160080160006101000a81548173ffffffffffffffffffffffffffffffffffffffff021916908373ffffffffffffffffffffffffffffffffffffffff1602179055506000600e60018503815481101515612bf557fe5b906000526020600020906009020160060160006101000a81548160ff0219169083151502179055506000600e60018503815481101515612c3157fe5b906000526020600020906009020160040160006101000a81548160ff0219169083151502179055506000600e60018503815481101515612c6d57fe5b906000526020600020906009020160050181905550827fe08c5ec3e4eec30f43f959991338b87e61cc24376dfe3fc0e156daee7a4f7cf833848460405180806020018573ffffffffffffffffffffffffffffffffffffffff1673ffffffffffffffffffffffffffffffffffffffff1681526020018473ffffffffffffffffffffffffffffffffffffffff1673ffffffffffffffffffffffffffffffffffffffff168152602001838152602001828103825260118152602001807f536f6c642046726f6d2041756374696f6e00000000000000000000000000000081525060200194505050505060405180910390a2505050565b6000612d6b83613893565b82101515612e07576040517f08c379a000000000000000000000000000000000000000000000000000000000815260040180806020018281038252602b8152602001807f455243373231456e756d657261626c653a206f776e657220696e646578206f7581526020017f74206f6620626f756e647300000000000000000000000000000000000000000081525060400191505060405180910390fd5b600560008473ffffffffffffffffffffffffffffffffffffffff1673ffffffffffffffffffffffffffffffffffffffff16815260200190815260200160002082815481101515612e5357fe5b9060005260206000200154905092915050565b60001515600e60018403815481101515612e7c57fe5b906000526020600020906009020160040160009054906101000a900460ff161515141515612ea957600080fd5b3073ffffffffffffffffffffffffffffffffffffffff16636352211e836040518263ffffffff167c01000000000000000000000000000000000000000000000000000000000281526004018082815260200191505060206040518083038186803b158015612f1657600080fd5b505afa158015612f2a573d6000803e3d6000fd5b505050506040513d6020811015612f4057600080fd5b810190808051906020019092919050505073ffffffffffffffffffffffffffffffffffffffff163373ffffffffffffffffffffffffffffffffffffffff16141515612f8a57600080fd5b6001600e60018403815481101515612f9e57fe5b906000526020600020906009020160040160006101000a81548160ff02191690831515021790555080600e60018403815481101515612fd957fe5b906000526020600020906009020160050181905550612ff8308361150b565b817fe08c5ec3e4eec30f43f959991338b87e61cc24376dfe3fc0e156daee7a4f7cf83360008460405180806020018573ffffffffffffffffffffffffffffffffffffffff1673ffffffffffffffffffffffffffffffffffffffff1681526020018473ffffffffffffffffffffffffffffffffffffffff1673ffffffffffffffffffffffffffffffffffffffff168152602001838152602001828103825260078152602001807f4f6e2053616c650000000000000000000000000000000000000000000000000081525060200194505050505060405180910390a25050565b6130f283838360206040519081016040528060008152506144b3565b505050565b6000600e6001830381548110151561310b57fe5b90600052602060002090600902016007015411156131da57600e6001820381548110151561313557fe5b906000526020600020906009020160070154600c6000600e6001850381548110151561315d57fe5b906000526020600020906009020160080160009054906101000a900473ffffffffffffffffffffffffffffffffffffffff1673ffffffffffffffffffffffffffffffffffffffff1673ffffffffffffffffffffffffffffffffffffffff168152602001908152602001600020600401600082825401925050819055505b34600e600183038154811015156131ed57fe5b90600052602060002090600902016007018190555033600e6001830381548110151561321557fe5b906000526020600020906009020160080160006101000a81548173ffffffffffffffffffffffffffffffffffffffff021916908373ffffffffffffffffffffffffffffffffffffffff160217905550807fe08c5ec3e4eec30f43f959991338b87e61cc24376dfe3fc0e156daee7a4f7cf83361329084613786565b3460405180806020018573ffffffffffffffffffffffffffffffffffffffff1673ffffffffffffffffffffffffffffffffffffffff1681526020018473ffffffffffffffffffffffffffffffffffffffff1673ffffffffffffffffffffffffffffffffffffffff168152602001838152602001828103825260068152602001807f426964646564000000000000000000000000000000000000000000000000000081525060200194505050505060405180910390a250565b6000613352612126565b821015156133ee576040517f08c379a000000000000000000000000000000000000000000000000000000000815260040180806020018281038252602c8152602001807f455243373231456e756d657261626c653a20676c6f62616c20696e646578206f81526020017f7574206f6620626f756e6473000000000000000000000000000000000000000081525060400191505060405180910390fd5b6007828154811015156133fd57fe5b90600052602060002001549050919050565b80600c60003373ffffffffffffffffffffffffffffffffffffffff1673ffffffffffffffffffffffffffffffffffffffff1681526020019081526020016000206004015403600c60003373ffffffffffffffffffffffffffffffffffffffff1673ffffffffffffffffffffffffffffffffffffffff168152602001908152602001600020600401819055503373ffffffffffffffffffffffffffffffffffffffff166108fc829081150290604051600060405180830381858888f193505050501580156134e0573d6000803e3d6000fd5b5050565b60018114806134f35750600281145b806134fe5750600381145b151561350957600080fd5b60018114156135dd576000600e6001600c60003373ffffffffffffffffffffffffffffffffffffffff1673ffffffffffffffffffffffffffffffffffffffff168152602001908152602001600020600001540381548110151561356857fe5b906000526020600020906009020160080160146101000a81548160ff0219169083151502179055506000600c60003373ffffffffffffffffffffffffffffffffffffffff1673ffffffffffffffffffffffffffffffffffffffff16815260200190815260200160002060000181905550613783565b60028114156136b1576000600e6001600c60003373ffffffffffffffffffffffffffffffffffffffff1673ffffffffffffffffffffffffffffffffffffffff168152602001908152602001600020600101540381548110151561363c57fe5b906000526020600020906009020160080160146101000a81548160ff0219169083151502179055506000600c60003373ffffffffffffffffffffffffffffffffffffffff1673ffffffffffffffffffffffffffffffffffffffff16815260200190815260200160002060010181905550613782565b6003811415613781576000600e6001600c60003373ffffffffffffffffffffffffffffffffffffffff1673ffffffffffffffffffffffffffffffffffffffff168152602001908152602001600020600201540381548110151561371057fe5b906000526020600020906009020160080160146101000a81548160ff0219169083151502179055506000600c60003373ffffffffffffffffffffffffffffffffffffffff1673ffffffffffffffffffffffffffffffffffffffff168152602001908152602001600020600201819055505b5b5b50565b6000806001600084815260200190815260200160002060009054906101000a900473ffffffffffffffffffffffffffffffffffffffff169050600073ffffffffffffffffffffffffffffffffffffffff168173ffffffffffffffffffffffffffffffffffffffff161415151561388a576040517f08c379a00000000000000000000000000000000000000000000000000000000081526004018080602001828103825260298152602001807f4552433732313a206f776e657220717565727920666f72206e6f6e657869737481526020017f656e7420746f6b656e000000000000000000000000000000000000000000000081525060400191505060405180910390fd5b80915050919050565b60008073ffffffffffffffffffffffffffffffffffffffff168273ffffffffffffffffffffffffffffffffffffffff161415151561395f576040517f08c379a000000000000000000000000000000000000000000000000000000000815260040180806020018281038252602a8152602001807f4552433732313a2062616c616e636520717565727920666f7220746865207a6581526020017f726f20616464726573730000000000000000000000000000000000000000000081525060400191505060405180910390fd5b6139a6600360008473ffffffffffffffffffffffffffffffffffffffff1673ffffffffffffffffffffffffffffffffffffffff16815260200190815260200160002061524a565b9050919050565b60606139b882615258565b805480602002602001604051908101604052809291908181526020018280548015613a0257602002820191906000526020600020905b8154815260200190600101908083116139ee575b50505050509050919050565b600f60009054906101000a900473ffffffffffffffffffffffffffffffffffffffff1681565b6060600a8054600181600116156101000203166002900480601f016020809104026020016040519081016040528092919081815260200182805460018160011615610100020316600290048015613acc5780601f10613aa157610100808354040283529160200191613acc565b820191906000526020600020905b815481529060010190602001808311613aaf57829003601f168201915b5050505050905090565b6000600e60018303815481101515613aea57fe5b9060005260206000209060090201600701541115613bb957600e60018203815481101515613b1457fe5b906000526020600020906009020160070154600c6000600e60018503815481101515613b3c57fe5b906000526020600020906009020160080160009054906101000a900473ffffffffffffffffffffffffffffffffffffffff1673ffffffffffffffffffffffffffffffffffffffff1673ffffffffffffffffffffffffffffffffffffffff168152602001908152602001600020600401600082825401925050819055505b6000600e60018303815481101515613bcd57fe5b906000526020600020906009020160060160006101000a81548160ff0219169083151502179055506000600e60018303815481101515613c0957fe5b9060005260206000209060090201600701819055506000600e60018303815481101515613c3257fe5b906000526020600020906009020160080160006101000a81548173ffffffffffffffffffffffffffffffffffffffff021916908373ffffffffffffffffffffffffffffffffffffffff160217905550807fe08c5ec3e4eec30f43f959991338b87e61cc24376dfe3fc0e156daee7a4f7cf83360008060405180806020018573ffffffffffffffffffffffffffffffffffffffff1673ffffffffffffffffffffffffffffffffffffffff1681526020018473ffffffffffffffffffffffffffffffffffffffff1673ffffffffffffffffffffffffffffffffffffffff168152602001838152602001828103825260118152602001807f41756374696f6e2043616e63656c6c656400000000000000000000000000000081525060200194505050505060405180910390a250565b3373ffffffffffffffffffffffffffffffffffffffff168273ffffffffffffffffffffffffffffffffffffffff1614151515613e02576040517f08c379a00000000000000000000000000000000000000000000000000000000081526004018080602001828103825260198152602001807f4552433732313a20617070726f766520746f2063616c6c65720000000000000081525060200191505060405180910390fd5b80600460003373ffffffffffffffffffffffffffffffffffffffff1673ffffffffffffffffffffffffffffffffffffffff16815260200190815260200160002060008473ffffffffffffffffffffffffffffffffffffffff1673ffffffffffffffffffffffffffffffffffffffff16815260200190815260200160002060006101000a81548160ff0219169083151502179055508173ffffffffffffffffffffffffffffffffffffffff163373ffffffffffffffffffffffffffffffffffffffff167f17307eab39ab6107e8899845ad3d59bd9653f200f220920489ca2b5937696c3183604051808215151515815260200191505060405180910390a35050565b600c602052806000526040600020600091509050806000015490806001015490806002015490806003018054600181600116156101000203166002900480601f016020809104026020016040519081016040528092919081815260200182805460018160011615610100020316600290048015613fc15780601f10613f9657610100808354040283529160200191613fc1565b820191906000526020600020905b815481529060010190602001808311613fa457829003601f168201915b5050505050908060040154905085565b60001515600d836040518082805190602001908083835b60208310151561400d5780518252602082019150602081019050602083039250613fe8565b6001836020036101000a038019825116818451168082178552505050505050905001915050908152602001604051809103902060009054906101000a900460ff16151514151561405c57600080fd5b6010543073ffffffffffffffffffffffffffffffffffffffff166318160ddd6040518163ffffffff167c010000000000000000000000000000000000000000000000000000000002815260040160206040518083038186803b1580156140c157600080fd5b505afa1580156140d5573d6000803e3d6000fd5b505050506040513d60208110156140eb57600080fd5b810190808051906020019092919050505010151561410857600080fd5b600f60009054906101000a900473ffffffffffffffffffffffffffffffffffffffff1673ffffffffffffffffffffffffffffffffffffffff163373ffffffffffffffffffffffffffffffffffffffff1614151561416457600080fd5b60018414806141735750600284145b8061417e5750600384145b151561418957600080fd5b6000600e610140604051908101604052808781526020018681526020018581526020018481526020016001151581526020016001815260200160001515815260200160008152602001600073ffffffffffffffffffffffffffffffffffffffff1681526020016000151581525090806001815401808255809150509060018203906000526020600020906009020160009091929091909150600082015181600001556020820151816001019080519060200190614247929190615e33565b506040820151816002019080519060200190614264929190615e33565b506060820151816003019080519060200190614281929190615e33565b5060808201518160040160006101000a81548160ff02191690831515021790555060a0820151816005015560c08201518160060160006101000a81548160ff02191690831515021790555060e082015181600701556101008201518160080160006101000a81548173ffffffffffffffffffffffffffffffffffffffff021916908373ffffffffffffffffffffffffffffffffffffffff1602179055506101208201518160080160146101000a81548160ff0219169083151502179055505050905061434d33826152a0565b6001600d846040518082805190602001908083835b6020831015156143875780518252602082019150602081019050602083039250614362565b6001836020036101000a038019825116818451168082178552505050505050905001915050908152602001604051809103902060006101000a81548160ff021916908315150217905550807fe08c5ec3e4eec30f43f959991338b87e61cc24376dfe3fc0e156daee7a4f7cf8600033600060405180806020018573ffffffffffffffffffffffffffffffffffffffff1673ffffffffffffffffffffffffffffffffffffffff1681526020018473ffffffffffffffffffffffffffffffffffffffff1673ffffffffffffffffffffffffffffffffffffffff168152602001838152602001828103825260078152602001807f636c61696d65640000000000000000000000000000000000000000000000000081525060200194505050505060405180910390a25050505050565b6144be84848461261a565b6144ca848484846152c1565b1515614564576040517f08c379a00000000000000000000000000000000000000000000000000000000081526004018080602001828103825260328152602001807f4552433732313a207472616e7366657220746f206e6f6e20455243373231526581526020017f63656976657220696d706c656d656e746572000000000000000000000000000081525060400191505060405180910390fd5b50505050565b60011515600e6001830381548110151561458057fe5b906000526020600020906009020160040160009054906101000a900460ff1615151415156145ad57600080fd5b3073ffffffffffffffffffffffffffffffffffffffff16636352211e826040518263ffffffff167c01000000000000000000000000000000000000000000000000000000000281526004018082815260200191505060206040518083038186803b15801561461a57600080fd5b505afa15801561462e573d6000803e3d6000fd5b505050506040513d602081101561464457600080fd5b810190808051906020019092919050505073ffffffffffffffffffffffffffffffffffffffff163373ffffffffffffffffffffffffffffffffffffffff1614151561468e57600080fd5b6000600e600183038154811015156146a257fe5b906000526020600020906009020160040160006101000a81548160ff0219169083151502179055506000600e600183038154811015156146de57fe5b906000526020600020906009020160050181905550807fe08c5ec3e4eec30f43f959991338b87e61cc24376dfe3fc0e156daee7a4f7cf83360008060405180806020018573ffffffffffffffffffffffffffffffffffffffff1673ffffffffffffffffffffffffffffffffffffffff1681526020018473ffffffffffffffffffffffffffffffffffffffff1673ffffffffffffffffffffffffffffffffffffffff1681526020018381526020018281038252600e8152602001807f53616c652043616e63656c6c656400000000000000000000000000000000000081525060200194505050505060405180910390a250565b60606147db8261507b565b1515614875576040517f08c379a000000000000000000000000000000000000000000000000000000000815260040180806020018281038252602f8152602001807f4552433732314d657461646174613a2055524920717565727920666f72206e6f81526020017f6e6578697374656e7420746f6b656e000000000000000000000000000000000081525060400191505060405180910390fd5b600b60008381526020019081526020016000208054600181600116156101000203166002900480601f01602080910402602001604051908101604052809291908181526020018280546001816001161561010002031660029004801561491c5780601f106148f15761010080835404028352916020019161491c565b820191906000526020600020905b8154815290600101906020018083116148ff57829003601f168201915b50505050509050919050565b60105481565b6000600460008473ffffffffffffffffffffffffffffffffffffffff1673ffffffffffffffffffffffffffffffffffffffff16815260200190815260200160002060008373ffffffffffffffffffffffffffffffffffffffff1673ffffffffffffffffffffffffffffffffffffffff16815260200190815260200160002060009054906101000a900460ff16905092915050565b80600c60003373ffffffffffffffffffffffffffffffffffffffff1673ffffffffffffffffffffffffffffffffffffffff1681526020019081526020016000206003019080519060200190614a18929190615eb3565b5050565b6001600e60018303815481101515614a3057fe5b906000526020600020906009020160060160006101000a81548160ff0219169083151502179055506000600e60018303815481101515614a6c57fe5b906000526020600020906009020160070181905550614a8b308261150b565b807fe08c5ec3e4eec30f43f959991338b87e61cc24376dfe3fc0e156daee7a4f7cf83360008060405180806020018573ffffffffffffffffffffffffffffffffffffffff1673ffffffffffffffffffffffffffffffffffffffff1681526020018473ffffffffffffffffffffffffffffffffffffffff1673ffffffffffffffffffffffffffffffffffffffff1681526020018381526020018281038252600e8152602001807f41756374696f6e2053746172747300000000000000000000000000000000000081525060200194505050505060405180910390a250565b60003073ffffffffffffffffffffffffffffffffffffffff16636352211e836040518263ffffffff167c01000000000000000000000000000000000000000000000000000000000281526004018082815260200191505060206040518083038186803b158015614bd757600080fd5b505afa158015614beb573d6000803e3d6000fd5b505050506040513d6020811015614c0157600080fd5b810190808051906020019092919050505090503073ffffffffffffffffffffffffffffffffffffffff166342842e0e8233856040518463ffffffff167c0100000000000000000000000000000000000000000000000000000000028152600401808473ffffffffffffffffffffffffffffffffffffffff1673ffffffffffffffffffffffffffffffffffffffff1681526020018373ffffffffffffffffffffffffffffffffffffffff1673ffffffffffffffffffffffffffffffffffffffff1681526020018281526020019350505050600060405180830381600087803b158015614ceb57600080fd5b505af1158015614cff573d6000803e3d6000fd5b505050506000600e60018403815481101515614d1757fe5b906000526020600020906009020160040160006101000a81548160ff0219169083151502179055506000600e60018403815481101515614d5357fe5b90600052602060002090600902016005018190555034600c60008373ffffffffffffffffffffffffffffffffffffffff1673ffffffffffffffffffffffffffffffffffffffff1681526020019081526020016000206004015401600c60008373ffffffffffffffffffffffffffffffffffffffff1673ffffffffffffffffffffffffffffffffffffffff168152602001908152602001600020600401819055506000600e60018403815481101515614e0757fe5b9060005260206000209060090201600701541115614ed657600e60018303815481101515614e3157fe5b906000526020600020906009020160070154600c6000600e60018603815481101515614e5957fe5b906000526020600020906009020160080160009054906101000a900473ffffffffffffffffffffffffffffffffffffffff1673ffffffffffffffffffffffffffffffffffffffff1673ffffffffffffffffffffffffffffffffffffffff168152602001908152602001600020600401600082825401925050819055505b6000600e60018403815481101515614eea57fe5b9060005260206000209060090201600701819055506000600e60018403815481101515614f1357fe5b906000526020600020906009020160080160006101000a81548173ffffffffffffffffffffffffffffffffffffffff021916908373ffffffffffffffffffffffffffffffffffffffff1602179055506000600e60018403815481101515614f7657fe5b906000526020600020906009020160060160006101000a81548160ff021916908315150217905550817fe08c5ec3e4eec30f43f959991338b87e61cc24376dfe3fc0e156daee7a4f7cf882333460405180806020018573ffffffffffffffffffffffffffffffffffffffff1673ffffffffffffffffffffffffffffffffffffffff1681526020018473ffffffffffffffffffffffffffffffffffffffff1673ffffffffffffffffffffffffffffffffffffffff168152602001838152602001828103825260048152602001807f736f6c640000000000000000000000000000000000000000000000000000000081525060200194505050505060405180910390a25050565b6000806001600084815260200190815260200160002060009054906101000a900473ffffffffffffffffffffffffffffffffffffffff169050600073ffffffffffffffffffffffffffffffffffffffff168173ffffffffffffffffffffffffffffffffffffffff161415915050919050565b60006150f88261507b565b1515615192576040517f08c379a000000000000000000000000000000000000000000000000000000000815260040180806020018281038252602c8152602001807f4552433732313a206f70657261746f7220717565727920666f72206e6f6e657881526020017f697374656e7420746f6b656e000000000000000000000000000000000000000081525060400191505060405180910390fd5b600061519d83613786565b90508073ffffffffffffffffffffffffffffffffffffffff168473ffffffffffffffffffffffffffffffffffffffff16148061520c57508373ffffffffffffffffffffffffffffffffffffffff166151f48461142b565b73ffffffffffffffffffffffffffffffffffffffff16145b8061521d575061521c818561492e565b5b91505092915050565b6152318383836154e4565b61523b83826157c9565b615245828261596d565b505050565b600081600001549050919050565b6000600560008373ffffffffffffffffffffffffffffffffffffffff1673ffffffffffffffffffffffffffffffffffffffff1681526020019081526020016000209050919050565b6152aa8282615a34565b6152b4828261596d565b6152bd81615c50565b5050565b60006152e28473ffffffffffffffffffffffffffffffffffffffff16615c9c565b15156152f157600190506154dc565b60008473ffffffffffffffffffffffffffffffffffffffff1663150b7a02338887876040518563ffffffff167c0100000000000000000000000000000000000000000000000000000000028152600401808573ffffffffffffffffffffffffffffffffffffffff1673ffffffffffffffffffffffffffffffffffffffff1681526020018473ffffffffffffffffffffffffffffffffffffffff1673ffffffffffffffffffffffffffffffffffffffff16815260200183815260200180602001828103825283818151815260200191508051906020019080838360005b838110156153e85780820151818401526020810190506153cd565b50505050905090810190601f1680156154155780820380516001836020036101000a031916815260200191505b5095505050505050602060405180830381600087803b15801561543757600080fd5b505af115801561544b573d6000803e3d6000fd5b505050506040513d602081101561546157600080fd5b8101908080519060200190929190505050905063150b7a027c0100000000000000000000000000000000000000000000000000000000027bffffffffffffffffffffffffffffffffffffffffffffffffffffffff1916817bffffffffffffffffffffffffffffffffffffffffffffffffffffffff1916149150505b949350505050565b8273ffffffffffffffffffffffffffffffffffffffff1661550482613786565b73ffffffffffffffffffffffffffffffffffffffff161415156155b5576040517f08c379a00000000000000000000000000000000000000000000000000000000081526004018080602001828103825260298152602001807f4552433732313a207472616e73666572206f6620746f6b656e2074686174206981526020017f73206e6f74206f776e000000000000000000000000000000000000000000000081525060400191505060405180910390fd5b600073ffffffffffffffffffffffffffffffffffffffff168273ffffffffffffffffffffffffffffffffffffffff1614151515615680576040517f08c379a00000000000000000000000000000000000000000000000000000000081526004018080602001828103825260248152602001807f4552433732313a207472616e7366657220746f20746865207a65726f2061646481526020017f726573730000000000000000000000000000000000000000000000000000000081525060400191505060405180910390fd5b61568981615caf565b6156d0600360008573ffffffffffffffffffffffffffffffffffffffff1673ffffffffffffffffffffffffffffffffffffffff168152602001908152602001600020615d6f565b615717600360008473ffffffffffffffffffffffffffffffffffffffff1673ffffffffffffffffffffffffffffffffffffffff168152602001908152602001600020615d92565b816001600083815260200190815260200160002060006101000a81548173ffffffffffffffffffffffffffffffffffffffff021916908373ffffffffffffffffffffffffffffffffffffffff160217905550808273ffffffffffffffffffffffffffffffffffffffff168473ffffffffffffffffffffffffffffffffffffffff167fddf252ad1be2c89b69c2b068fc378daa952ba7f163c4a11628f55a4df523b3ef60405160405180910390a4505050565b60006158216001600560008673ffffffffffffffffffffffffffffffffffffffff1673ffffffffffffffffffffffffffffffffffffffff16815260200190815260200160002080549050615da890919063ffffffff16565b90506000600660008481526020019081526020016000205490508181141515615914576000600560008673ffffffffffffffffffffffffffffffffffffffff1673ffffffffffffffffffffffffffffffffffffffff1681526020019081526020016000208381548110151561589257fe5b9060005260206000200154905080600560008773ffffffffffffffffffffffffffffffffffffffff1673ffffffffffffffffffffffffffffffffffffffff168152602001908152602001600020838154811015156158ec57fe5b9060005260206000200181905550816006600083815260200190815260200160002081905550505b600560008573ffffffffffffffffffffffffffffffffffffffff1673ffffffffffffffffffffffffffffffffffffffff1681526020019081526020016000208054809190600190036159669190615f33565b5050505050565b600560008373ffffffffffffffffffffffffffffffffffffffff1673ffffffffffffffffffffffffffffffffffffffff168152602001908152602001600020805490506006600083815260200190815260200160002081905550600560008373ffffffffffffffffffffffffffffffffffffffff1673ffffffffffffffffffffffffffffffffffffffff1681526020019081526020016000208190806001815401808255809150509060018203906000526020600020016000909192909190915055505050565b600073ffffffffffffffffffffffffffffffffffffffff168273ffffffffffffffffffffffffffffffffffffffff1614151515615ad9576040517f08c379a00000000000000000000000000000000000000000000000000000000081526004018080602001828103825260208152602001807f4552433732313a206d696e7420746f20746865207a65726f206164647265737381525060200191505060405180910390fd5b615ae28161507b565b151515615b57576040517f08c379a000000000000000000000000000000000000000000000000000000000815260040180806020018281038252601c8152602001807f4552433732313a20746f6b656e20616c7265616479206d696e7465640000000081525060200191505060405180910390fd5b816001600083815260200190815260200160002060006101000a81548173ffffffffffffffffffffffffffffffffffffffff021916908373ffffffffffffffffffffffffffffffffffffffff160217905550615bf0600360008473ffffffffffffffffffffffffffffffffffffffff1673ffffffffffffffffffffffffffffffffffffffff168152602001908152602001600020615d92565b808273ffffffffffffffffffffffffffffffffffffffff16600073ffffffffffffffffffffffffffffffffffffffff167fddf252ad1be2c89b69c2b068fc378daa952ba7f163c4a11628f55a4df523b3ef60405160405180910390a45050565b6007805490506008600083815260200190815260200160002081905550600781908060018154018082558091505090600182039060005260206000200160009091929091909150555050565b600080823b905060008111915050919050565b600073ffffffffffffffffffffffffffffffffffffffff166002600083815260200190815260200160002060009054906101000a900473ffffffffffffffffffffffffffffffffffffffff1673ffffffffffffffffffffffffffffffffffffffff16141515615d6c5760006002600083815260200190815260200160002060006101000a81548173ffffffffffffffffffffffffffffffffffffffff021916908373ffffffffffffffffffffffffffffffffffffffff1602179055505b50565b615d8760018260000154615da890919063ffffffff16565b816000018190555050565b6001816000016000828254019250508190555050565b6000828211151515615e22576040517f08c379a000000000000000000000000000000000000000000000000000000000815260040180806020018281038252601e8152602001807f536166654d6174683a207375627472616374696f6e206f766572666c6f77000081525060200191505060405180910390fd5b600082840390508091505092915050565b828054600181600116156101000203166002900490600052602060002090601f016020900481019282601f10615e7457805160ff1916838001178555615ea2565b82800160010185558215615ea2579182015b82811115615ea1578251825591602001919060010190615e86565b5b509050615eaf9190615f5f565b5090565b828054600181600116156101000203166002900490600052602060002090601f016020900481019282601f10615ef457805160ff1916838001178555615f22565b82800160010185558215615f22579182015b82811115615f21578251825591602001919060010190615f06565b5b509050615f2f9190615f5f565b5090565b815481835581811115615f5a57818360005260206000209182019101615f599190615f5f565b5b505050565b615f8191905b80821115615f7d576000816000905550600101615f65565b5090565b9056fea165627a7a723058200278cc803b8dd50befc5ab624da84add568663dc5f6cf46fb489560f8c6966d20029",
  "source": "pragma solidity 0.5.0;\n\n//import \"https://github.com/OpenZeppelin/openzeppelin-contracts/tree/docs-org/contracts/token/ERC721/ERC721.sol\";\nimport \"@openzeppelin/contracts/token/ERC721/ERC721Full.sol\";\n\n//import \"https://github.com/OpenZeppelin/openzeppelin-contracts/tree/docs-org/contracts/token/ERC721/ERC721.sol\";\n\n//contract ERC721Full is ERC721, ERC721Enumerable, ERC721Metadata {\n//    constructor (string memory name, string memory symbol) public ERC721Metadata(name, symbol) {\n//        // solhint-disable-previous-line no-empty-blocks\n//    }\n//}\ncontract nftContract is ERC721Full {\n    struct nftData {\n        uint256 clothType; //--> 1 --> head, 2 --> middle, 3 --> bottom\n        string name;\n        string cid;\n        string rarity;\n        bool isOnSale;\n        uint256 sellPrice;\n        bool isBiddable;\n        uint256 maxBid;\n        address maxBidder;\n        bool isWearing;\n    }\n\n    struct userData {\n        //uint is reference to tokenId from openzeppelin-contracts\n        uint256 head; //also the photo if do you have a head assigned\n        //uint is reference to tokenId from openzeppelin-contracts\n        uint256 middle;\n        //uint is reference to tokenId from openzeppelin-contracts\n        uint256 bottom;\n        string username;\n        uint256 userBalance;\n        //string photo; --> will be decided later\n    }\n\n    event nftTransaction(\n        uint256 indexed id,\n        string transactionType,\n        address fromAddress,\n        address toAddress,\n        uint256 value\n        //address txn\n    );\n    mapping(address => userData) public users;\n    mapping(string => bool) isExist;\n    nftData[] public nfts;\n\n    //mapping(uint => nftData) public nfts; //uint is reference to tokenId from openzeppelin-contracts\n    address  public owner;\n    uint public maxSupply;\n    constructor() public ERC721Full(\"nftContract\", \"NFTC\") {\n        owner = msg.sender;\n        maxSupply=100;\n    }\n\n    function setUsername(string memory _username) public {\n        users[msg.sender].username = _username;\n    }\n\n    function wearItems(\n        uint256 _headTokenId,\n        uint256 _middleTokenId,\n        uint256 _bottomTokenId\n    ) public {\n        require(\n            _headTokenId == 0 ||\n                (this.ownerOf(_headTokenId) == msg.sender &&\n                    nfts[_headTokenId - 1].clothType == 1)\n        );\n        require(\n            _middleTokenId == 0 ||\n                (this.ownerOf(_middleTokenId) == msg.sender &&\n                    nfts[_middleTokenId - 1].clothType == 2)\n        );\n        require(\n            _bottomTokenId == 0 ||\n                (this.ownerOf(_bottomTokenId) == msg.sender &&\n                    nfts[_bottomTokenId - 1].clothType == 3)\n        );\n\n        if (_headTokenId != 0) {\n            nfts[_headTokenId - 1].isWearing = true;\n        } else if (users[msg.sender].head != 0) {\n            nfts[users[msg.sender].head - 1].isWearing = false;\n        }\n        if (_middleTokenId != 0) {\n            nfts[_middleTokenId - 1].isWearing = true;\n        } else if (users[msg.sender].middle != 0) {\n            nfts[users[msg.sender].middle - 1].isWearing = false;\n        }\n        if (_middleTokenId != 0) {\n            nfts[_bottomTokenId - 1].isWearing = true;\n        } else if (users[msg.sender].bottom != 0) {\n            nfts[users[msg.sender].bottom - 1].isWearing = false;\n        }\n\n        users[msg.sender].head = _headTokenId;\n        users[msg.sender].middle = _middleTokenId;\n        users[msg.sender].bottom = _bottomTokenId;\n    }\n\n    function wearItem(uint256 _tokenId) public {\n        require(this.ownerOf(_tokenId) == msg.sender);\n\n\n        nfts[_tokenId - 1].isWearing = true;\n\n        if (nfts[_tokenId - 1].clothType == 1) {\n            if (users[msg.sender].head != 0)\n            {\n                nfts[users[msg.sender].head - 1].isWearing = false;\n            }\n            users[msg.sender].head = _tokenId;\n        } else if (nfts[_tokenId - 1].clothType == 2) {\n            if (users[msg.sender].middle != 0)\n            {\n                nfts[users[msg.sender].middle - 1].isWearing = false;\n            }\n            users[msg.sender].middle = _tokenId;\n        } else if (nfts[_tokenId - 1].clothType == 3) {\n            if (users[msg.sender].bottom != 0)\n            {\n                nfts[users[msg.sender].bottom - 1].isWearing = false;\n            }\n            users[msg.sender].bottom = _tokenId;\n        }\n\n\n    }\n\n    function unWearItem(uint256 _clothType) public {\n        require(_clothType == 1 || _clothType == 2 || _clothType == 3);\n\n        if (_clothType == 1) {\n            nfts[users[msg.sender].head - 1].isWearing = false;\n            users[msg.sender].head = 0;\n        } else if (_clothType == 2) {\n            nfts[users[msg.sender].middle - 1].isWearing = false;\n            users[msg.sender].middle = 0;\n        } else if (_clothType == 3) {\n            nfts[users[msg.sender].bottom - 1].isWearing = false;\n            users[msg.sender].bottom = 0;\n        }\n    }\n\n    function tokensOfOwner(address _owner)\n        public\n        view\n        returns (uint256[] memory)\n    {\n        return _tokensOfOwner(_owner);\n    }\n\n    function putOnSale(uint256 _tokenId, uint256 _sellPrice) public {\n        //is on sale false olmal\n        require(nfts[_tokenId - 1].isOnSale == false);\n        //msg.sender owner olmal\n        require(msg.sender == this.ownerOf(_tokenId) );\n        \n        nfts[_tokenId - 1].isOnSale = true; //tokenId or tokenId-1 ??????\n        nfts[_tokenId - 1].sellPrice = _sellPrice; //tokenId or tokenId-1 ??????\n        approve(address(this), _tokenId);\n\n        emit nftTransaction(\n            _tokenId,\n            \"On Sale\",\n            msg.sender,\n            address(0x0),\n            _sellPrice\n        ); //tokenId or tokenId-1 ??????\n    }\n\n    function cancelSale(uint256 _tokenId) public {\n        //is on sale true olmas lazm\n        require(nfts[_tokenId - 1].isOnSale == true);\n        //msg.sender owner olmal\n        require(msg.sender == this.ownerOf(_tokenId));\n        \n        nfts[_tokenId - 1].isOnSale = false; //tokenId or tokenId-1 ??????\n        nfts[_tokenId - 1].sellPrice = 0; //tokenId or tokenId-1 ??????\n\n        emit nftTransaction(\n            _tokenId,\n            \"Sale Cancelled\",\n            msg.sender,\n            address(0x0),\n            0\n        ); //tokenId or tokenId-1 ??????\n    }\n\n    function buyFromSale(uint256 _tokenId) public payable {\n        //is on sale true olmal\n        //msg.sender owner olmalal\n        //parann en az sellPrice kadar olmal\n        //approve var m diye check et --> getApproved(uint256 tokenId)  address operator\n        address sellerAddress = this.ownerOf(_tokenId); //tokenId or tokenId-1 ??????\n        this.safeTransferFrom(sellerAddress, msg.sender, _tokenId); //transfer with ERC721 //change owner\n        nfts[_tokenId - 1].isOnSale = false; //tokenId or tokenId-1 ??????\n        nfts[_tokenId - 1].sellPrice = 0; //tokenId or tokenId-1 ??????\n        users[sellerAddress].userBalance =\n            users[sellerAddress].userBalance +\n            msg.value; //overflow attack assert ile check et prev balance + sellPrice = new balance\n\n        //satld we bid aksa bunlar yaplmal\n        if (nfts[_tokenId - 1].maxBid > 0) {\n            users[nfts[_tokenId - 1].maxBidder].userBalance += nfts[\n                _tokenId - 1\n            ]\n                .maxBid; //check overflow attack\n        }\n        nfts[_tokenId - 1].maxBid = 0;\n        nfts[_tokenId - 1].maxBidder = address(0x0);\n        nfts[_tokenId - 1].isBiddable = false; //tokenId or tokenId-1 ??????\n\n        emit nftTransaction(\n            _tokenId,\n            \"sold\",\n            sellerAddress,\n            msg.sender,\n            msg.value\n        ); //tokenId or tokenId-1 ??????\n    }\n\n    function putOnAuction(uint256 _tokenId) public {\n        nfts[_tokenId - 1].isBiddable = true; //tokenId or tokenId-1 ??????\n        nfts[_tokenId - 1].maxBid = 0; //tokenId or tokenId-1 ??????\n        approve(address(this), _tokenId);\n\n        emit nftTransaction(\n            _tokenId,\n            \"Auction Starts\",\n            msg.sender,\n            address(0x0),\n            0\n        ); //tokenId or tokenId-1 ??????\n    }\n\n    function cancelAuction(uint256 _tokenId) public {\n        if (nfts[_tokenId - 1].maxBid > 0) {\n            users[nfts[_tokenId - 1].maxBidder].userBalance += nfts[\n                _tokenId - 1\n            ]\n                .maxBid; //check overflow attack\n        }\n        nfts[_tokenId - 1].isBiddable = false; //tokenId or tokenId-1 ??????\n        nfts[_tokenId - 1].maxBid = 0; //tokenId or tokenId-1 ??????\n        nfts[_tokenId - 1].maxBidder = address(0x0); //tokenId or tokenId-1 ??????\n\n        emit nftTransaction(\n            _tokenId,\n            \"Auction Cancelled\",\n            msg.sender,\n            address(0x0),\n            0\n        ); //tokenId or tokenId-1 ??????\n    }\n\n    function bid(uint256 _tokenId) public payable {\n        //maxbidden byk olmal message.value\n        //owner kendisi olmcak\n        //0 dan byk olmal msg.value\n        if (nfts[_tokenId - 1].maxBid > 0) {\n            users[nfts[_tokenId - 1].maxBidder].userBalance += nfts[\n                _tokenId - 1\n            ]\n                .maxBid; //check overflow attack\n        }\n        nfts[_tokenId - 1].maxBid = msg.value;\n        nfts[_tokenId - 1].maxBidder = msg.sender;\n\n        emit nftTransaction(\n            _tokenId,\n            \"Bidded\",\n            msg.sender,\n            ownerOf(_tokenId),\n            msg.value\n        ); //tokenId or tokenId-1 ??????\n    }\n\n    function acceptHighestBid(uint256 _tokenId) public {\n        //msg.sender tokenId owner olmal\n        address buyer = nfts[_tokenId - 1].maxBidder;\n        uint256 soldValue = nfts[_tokenId - 1].maxBid;\n        this.safeTransferFrom(\n            msg.sender,\n            nfts[_tokenId - 1].maxBidder,\n            _tokenId\n        ); //transfer with ERC721 //change owner\n        users[msg.sender].userBalance += nfts[_tokenId - 1].maxBid; //check overflow attack\n        nfts[_tokenId - 1].maxBid = 0; //tokenId or tokenId-1 ??????\n        nfts[_tokenId - 1].maxBidder = address(0x0); //tokenId or tokenId-1 ??????\n        nfts[_tokenId - 1].isBiddable = false; //tokenId or tokenId-1 ??????\n        nfts[_tokenId - 1].isOnSale = false; //tokenId or tokenId-1 ??????\n        nfts[_tokenId - 1].sellPrice = 0; //tokenId or tokenId-1 ??????\n\n        emit nftTransaction(\n            _tokenId,\n            \"Sold From Auction\",\n            msg.sender,\n            buyer,\n            soldValue\n        ); //tokenId or tokenId-1 ??????\n    }\n\n    function withdrawBid(uint256 _tokenId) public {\n        //msg.sender maxBidder olmal\n        uint256 withdrawnValue = nfts[_tokenId - 1].maxBid;\n        users[nfts[_tokenId - 1].maxBidder].userBalance += nfts[_tokenId - 1]\n            .maxBid; //check overflow attack\n        nfts[_tokenId - 1].maxBid = 0; //tokenId or tokenId-1 ??????\n        nfts[_tokenId - 1].maxBidder = address(0x0); //tokenId or tokenId-1 ??????\n\n        emit nftTransaction(\n            _tokenId,\n            \"Bid Withdrawn\",\n            msg.sender,\n            address(0x0),\n            withdrawnValue\n        ); //tokenId or tokenId-1 ??????\n    }\n\n    function withdrawMoney(uint256 _amount) public {\n        //amount balancetan kk eit olmal\n        users[msg.sender].userBalance = users[msg.sender].userBalance - _amount; //underflow attack\n        msg.sender.transfer(_amount);\n    }\n\n    function mint(\n        uint256 _clothType,\n        string memory _name,\n        string memory _cid,\n        string memory _rarity\n    ) public {\n        require(isExist[_cid] == false);\n        require(this.totalSupply() < maxSupply);\n        require(msg.sender ==owner);\n        require(_clothType == 1 || _clothType == 2 || _clothType == 3);\n        uint256 _id =\n            nfts.push(\n                nftData(\n                    _clothType,\n                    _name,\n                    _cid,\n                    _rarity,\n                    true,\n                    1,\n                    false,\n                    0,\n                    address(0x0),\n                    false\n                )\n            );\n        _mint(msg.sender, _id);\n        isExist[_cid] = true;\n        \n\n        emit nftTransaction(_id, \"claimed\", address(0x0), msg.sender, 0);\n    }\n}\n",
  "sourcePath": "/Users/gy/website/truffle/contracts/NFT.sol",
  "compiler": {
    "name": "solc",
    "version": "0.5.0+commit.1d4f565a.Emscripten.clang"
  },
  "schemaVersion": "3.4.1",
  "updatedAt": "2021-05-20T10:11:29.955Z",
  "devdoc": {
    "methods": {
      "approve(address,uint256)": {
        "details": "Approves another address to transfer the given token ID The zero address indicates there is no approved address. There can only be one approved address per token at a given time. Can only be called by the token owner or an approved operator.",
        "params": {
          "to": "address to be approved for the given token ID",
          "tokenId": "uint256 ID of the token to be approved"
        }
      },
      "balanceOf(address)": {
        "details": "Gets the balance of the specified address.",
        "params": {
          "owner": "address to query the balance of"
        },
        "return": "uint256 representing the amount owned by the passed address"
      },
      "getApproved(uint256)": {
        "details": "Gets the approved address for a token ID, or zero if no address set Reverts if the token ID does not exist.",
        "params": {
          "tokenId": "uint256 ID of the token to query the approval of"
        },
        "return": "address currently approved for the given token ID"
      },
      "isApprovedForAll(address,address)": {
        "details": "Tells whether an operator is approved by a given owner.",
        "params": {
          "operator": "operator address which you want to query the approval of",
          "owner": "owner address which you want to query the approval of"
        },
        "return": "bool whether the given operator is approved by the given owner"
      },
      "name()": {
        "details": "Gets the token name.",
        "return": "string representing the token name"
      },
      "ownerOf(uint256)": {
        "details": "Gets the owner of the specified token ID.",
        "params": {
          "tokenId": "uint256 ID of the token to query the owner of"
        },
        "return": "address currently marked as the owner of the given token ID"
      },
      "safeTransferFrom(address,address,uint256)": {
        "details": "Safely transfers the ownership of a given token ID to another address If the target address is a contract, it must implement `onERC721Received`, which is called upon a safe transfer, and return the magic value `bytes4(keccak256(\"onERC721Received(address,address,uint256,bytes)\"))`; otherwise, the transfer is reverted. Requires the msg.sender to be the owner, approved, or operator",
        "params": {
          "from": "current owner of the token",
          "to": "address to receive the ownership of the given token ID",
          "tokenId": "uint256 ID of the token to be transferred"
        }
      },
      "safeTransferFrom(address,address,uint256,bytes)": {
        "details": "Safely transfers the ownership of a given token ID to another address If the target address is a contract, it must implement `onERC721Received`, which is called upon a safe transfer, and return the magic value `bytes4(keccak256(\"onERC721Received(address,address,uint256,bytes)\"))`; otherwise, the transfer is reverted. Requires the msg.sender to be the owner, approved, or operator",
        "params": {
          "_data": "bytes data to send along with a safe transfer check",
          "from": "current owner of the token",
          "to": "address to receive the ownership of the given token ID",
          "tokenId": "uint256 ID of the token to be transferred"
        }
      },
      "setApprovalForAll(address,bool)": {
        "details": "Sets or unsets the approval of a given operator An operator is allowed to transfer all tokens of the sender on their behalf.",
        "params": {
          "approved": "representing the status of the approval to be set",
          "to": "operator address to set the approval"
        }
      },
      "supportsInterface(bytes4)": {
        "details": "See `IERC165.supportsInterface`.     * Time complexity O(1), guaranteed to always use less than 30 000 gas."
      },
      "symbol()": {
        "details": "Gets the token symbol.",
        "return": "string representing the token symbol"
      },
      "tokenByIndex(uint256)": {
        "details": "Gets the token ID at a given index of all the tokens in this contract Reverts if the index is greater or equal to the total number of tokens.",
        "params": {
          "index": "uint256 representing the index to be accessed of the tokens list"
        },
        "return": "uint256 token ID at the given index of the tokens list"
      },
      "tokenOfOwnerByIndex(address,uint256)": {
        "details": "Gets the token ID at a given index of the tokens list of the requested owner.",
        "params": {
          "index": "uint256 representing the index to be accessed of the requested tokens list",
          "owner": "address owning the tokens list to be accessed"
        },
        "return": "uint256 token ID at the given index of the tokens list owned by the requested address"
      },
      "tokenURI(uint256)": {
        "details": "Returns an URI for a given token ID. Throws if the token ID does not exist. May return an empty string.",
        "params": {
          "tokenId": "uint256 ID of the token to query"
        }
      },
      "totalSupply()": {
        "details": "Gets the total amount of tokens stored by the contract.",
        "return": "uint256 representing the total amount of tokens"
      },
      "transferFrom(address,address,uint256)": {
        "details": "Transfers the ownership of a given token ID to another address. Usage of this method is discouraged, use `safeTransferFrom` whenever possible. Requires the msg.sender to be the owner, approved, or operator.",
        "params": {
          "from": "current owner of the token",
          "to": "address to receive the ownership of the given token ID",
          "tokenId": "uint256 ID of the token to be transferred"
        }
      }
    }
  },
  "userdoc": {
    "methods": {}
  }
}